{
  "contractName": "CryptoRent",
  "abi": [
    {
      "inputs": [],
      "payable": false,
      "stateMutability": "nonpayable",
      "type": "constructor"
    },
    {
      "anonymous": false,
      "inputs": [
        {
          "indexed": false,
          "name": "apartment_id",
          "type": "uint256"
        }
      ],
      "name": "ApartmentCreated",
      "type": "event"
    },
    {
      "anonymous": false,
      "inputs": [
        {
          "indexed": false,
          "name": "apartment_id",
          "type": "uint256"
        },
        {
          "indexed": false,
          "name": "tenant",
          "type": "address"
        }
      ],
      "name": "SignedLease",
      "type": "event"
    },
    {
      "anonymous": false,
      "inputs": [
        {
          "indexed": false,
          "name": "apartment_id",
          "type": "uint256"
        },
        {
          "indexed": false,
          "name": "tenant",
          "type": "address"
        }
      ],
      "name": "ReleaseLease",
      "type": "event"
    },
    {
      "constant": false,
      "inputs": [
        {
          "name": "_landlord",
          "type": "address"
        },
        {
          "name": "_num_rooms",
          "type": "uint256"
        },
        {
          "name": "_num_bathrooms",
          "type": "uint256"
        },
        {
          "name": "_sq_ft",
          "type": "uint256"
        },
        {
          "name": "_mthly_amt",
          "type": "uint256"
        },
        {
          "name": "_url",
          "type": "string"
        },
        {
          "name": "_location",
          "type": "string"
        },
        {
          "name": "_deposit",
          "type": "uint256"
        }
      ],
      "name": "createApartment",
      "outputs": [],
      "payable": false,
      "stateMutability": "nonpayable",
      "type": "function"
    },
    {
      "constant": false,
      "inputs": [
        {
          "name": "_apartment_id",
          "type": "uint256"
        }
      ],
      "name": "getLandlord",
      "outputs": [
        {
          "name": "",
          "type": "address"
        }
      ],
      "payable": false,
      "stateMutability": "nonpayable",
      "type": "function"
    },
    {
      "constant": false,
      "inputs": [
        {
          "name": "_apartment_id",
          "type": "uint256"
        }
      ],
      "name": "getTenant",
      "outputs": [
        {
          "name": "",
          "type": "address"
        }
      ],
      "payable": false,
      "stateMutability": "nonpayable",
      "type": "function"
    },
    {
      "constant": false,
      "inputs": [
        {
          "name": "_apartment_id",
          "type": "uint256"
        }
      ],
      "name": "getMonthlyAmt",
      "outputs": [
        {
          "name": "",
          "type": "uint256"
        }
      ],
      "payable": false,
      "stateMutability": "nonpayable",
      "type": "function"
    },
    {
      "constant": false,
      "inputs": [
        {
          "name": "_apartment_id",
          "type": "uint256"
        }
      ],
      "name": "getNumPayments",
      "outputs": [
        {
          "name": "",
          "type": "uint256"
        }
      ],
      "payable": false,
      "stateMutability": "nonpayable",
      "type": "function"
    },
    {
      "constant": false,
      "inputs": [
        {
          "name": "_tenant",
          "type": "address"
        }
      ],
      "name": "getTenantsApartment",
      "outputs": [
        {
          "name": "",
          "type": "uint256"
        }
      ],
      "payable": false,
      "stateMutability": "nonpayable",
      "type": "function"
    },
    {
      "constant": false,
      "inputs": [
        {
          "name": "_tenant",
          "type": "address"
        },
        {
          "name": "_apartment_id",
          "type": "uint256"
        },
        {
          "name": "_start_date",
          "type": "uint256"
        },
        {
          "name": "_end_date",
          "type": "uint256"
        },
        {
          "name": "_num_payments",
          "type": "uint256"
        }
      ],
      "name": "signLease",
      "outputs": [],
      "payable": false,
      "stateMutability": "nonpayable",
      "type": "function"
    },
    {
      "constant": false,
      "inputs": [
        {
          "name": "_apartment_id",
          "type": "uint256"
        },
        {
          "name": "_tenant",
          "type": "address"
        }
      ],
      "name": "expireLease",
      "outputs": [],
      "payable": false,
      "stateMutability": "nonpayable",
      "type": "function"
    }
  ],
  "bytecode": "0x608060405234801561001057600080fd5b5060008081905550610eb0806100276000396000f30060806040526004361061008e576000357c0100000000000000000000000000000000000000000000000000000000900463ffffffff168063162b4ea114610093578063502fb9fd146100fe57806355fd83e51461016b57806374e13a1a146101d85780639502c1c614610219578063dbc298971461031a578063f0ebb73f14610371578063fb4dd91b146103be575b600080fd5b34801561009f57600080fd5b506100fc600480360381019080803573ffffffffffffffffffffffffffffffffffffffff169060200190929190803590602001909291908035906020019092919080359060200190929190803590602001909291905050506103ff565b005b34801561010a57600080fd5b5061012960048036038101908080359060200190929190505050610744565b604051808273ffffffffffffffffffffffffffffffffffffffff1673ffffffffffffffffffffffffffffffffffffffff16815260200191505060405180910390f35b34801561017757600080fd5b5061019660048036038101908080359060200190929190505050610784565b604051808273ffffffffffffffffffffffffffffffffffffffff1673ffffffffffffffffffffffffffffffffffffffff16815260200191505060405180910390f35b3480156101e457600080fd5b5061020360048036038101908080359060200190929190505050610882565b6040518082815260200191505060405180910390f35b34801561022557600080fd5b50610318600480360381019080803573ffffffffffffffffffffffffffffffffffffffff16906020019092919080359060200190929190803590602001909291908035906020019092919080359060200190929190803590602001908201803590602001908080601f0160208091040260200160405190810160405280939291908181526020018383808284378201915050505050509192919290803590602001908201803590602001908080601f0160208091040260200160405190810160405280939291908181526020018383808284378201915050505050509192919290803590602001909291905050506108a2565b005b34801561032657600080fd5b5061035b600480360381019080803573ffffffffffffffffffffffffffffffffffffffff169060200190929190505050610c51565b6040518082815260200191505060405180910390f35b34801561037d57600080fd5b506103bc60048036038101908080359060200190929190803573ffffffffffffffffffffffffffffffffffffffff169060200190929190505050610c9a565b005b3480156103ca57600080fd5b506103e960048036038101908080359060200190929190505050610d38565b6040518082815260200191505060405180910390f35b600060016000868152602001908152602001600020600701548673ffffffffffffffffffffffffffffffffffffffff1631101515156104cc576040517f08c379a00000000000000000000000000000000000000000000000000000000081526004018080602001828103825260228152602001807f496e7375666669656e742046756e64732043616e6e6f74205369676e204c656181526020017f736500000000000000000000000000000000000000000000000000000000000081525060400191505060405180910390fd5b6001600086815260200190815260200160002060080160009054906101000a900460ff16151515610565576040517f08c379a000000000000000000000000000000000000000000000000000000000815260040180806020018281038252601b8152602001807f41706172746d656e7420697320616c72656164792072656e746564000000000081525060200191505060405180910390fd5b838160000181905550828160010181905550818160020181905550858160030160006101000a81548173ffffffffffffffffffffffffffffffffffffffff021916908373ffffffffffffffffffffffffffffffffffffffff16021790555080600360008781526020019081526020016000206000820154816000015560018201548160010155600282015481600201556003820160009054906101000a900473ffffffffffffffffffffffffffffffffffffffff168160030160006101000a81548173ffffffffffffffffffffffffffffffffffffffff021916908373ffffffffffffffffffffffffffffffffffffffff160217905550905050600180600087815260200190815260200160002060080160006101000a81548160ff02191690831515021790555084600460008873ffffffffffffffffffffffffffffffffffffffff1673ffffffffffffffffffffffffffffffffffffffff168152602001908152602001600020819055507f5c00c795d563d40e32d88a1926a9d09ecac07d5d93c97b55c69b6279cb2c1fbb8587604051808381526020018273ffffffffffffffffffffffffffffffffffffffff1673ffffffffffffffffffffffffffffffffffffffff1681526020019250505060405180910390a1505050505050565b60006001600083815260200190815260200160002060000160009054906101000a900473ffffffffffffffffffffffffffffffffffffffff169050919050565b60006001600083815260200190815260200160002060080160009054906101000a900460ff161515610844576040517f08c379a00000000000000000000000000000000000000000000000000000000081526004018080602001828103825260268152602001807f546869732061706172746d656e7420686173206e6f7420796574206265656e2081526020017f72656e746564000000000000000000000000000000000000000000000000000081525060400191505060405180910390fd5b6003600083815260200190815260200160002060030160009054906101000a900473ffffffffffffffffffffffffffffffffffffffff169050919050565b600060016000838152602001908152602001600020600401549050919050565b6000888160000160006101000a81548173ffffffffffffffffffffffffffffffffffffffff021916908373ffffffffffffffffffffffffffffffffffffffff16021790555087816001018190555086816002018190555085816003018190555084816004018190555083816005019080519060200190610923929190610d58565b508281600601908051906020019061093c929190610d58565b5081816007018190555060008160080160006101000a81548160ff02191690831515021790555080600260008b73ffffffffffffffffffffffffffffffffffffffff1673ffffffffffffffffffffffffffffffffffffffff1681526020019081526020016000206000805481526020019081526020016000206000820160009054906101000a900473ffffffffffffffffffffffffffffffffffffffff168160000160006101000a81548173ffffffffffffffffffffffffffffffffffffffff021916908373ffffffffffffffffffffffffffffffffffffffff1602179055506001820154816001015560028201548160020155600382015481600301556004820154816004015560058201816005019080546001816001161561010002031660029004610a6b929190610dd8565b5060068201816006019080546001816001161561010002031660029004610a93929190610dd8565b50600782015481600701556008820160009054906101000a900460ff168160080160006101000a81548160ff0219169083151502179055509050508060016000805481526020019081526020016000206000820160009054906101000a900473ffffffffffffffffffffffffffffffffffffffff168160000160006101000a81548173ffffffffffffffffffffffffffffffffffffffff021916908373ffffffffffffffffffffffffffffffffffffffff1602179055506001820154816001015560028201548160020155600382015481600301556004820154816004015560058201816005019080546001816001161561010002031660029004610b99929190610dd8565b5060068201816006019080546001816001161561010002031660029004610bc1929190610dd8565b50600782015481600701556008820160009054906101000a900460ff168160080160006101000a81548160ff0219169083151502179055509050507f570149bf92246114b244ca59c27c74873ccf27153422e70d1ee8b5a12178c5d16000546040518082815260200191505060405180910390a16000808154809291906001019190505550505050505050505050565b6000600460008373ffffffffffffffffffffffffffffffffffffffff1673ffffffffffffffffffffffffffffffffffffffff168152602001908152602001600020549050919050565b60006001600084815260200190815260200160002060080160006101000a81548160ff0219169083151502179055507f2a780e7d75fcf50b13ebb4ffe8893eca45a1ba4abcbb4187599d9ec1d69c3eb68282604051808381526020018273ffffffffffffffffffffffffffffffffffffffff1673ffffffffffffffffffffffffffffffffffffffff1681526020019250505060405180910390a15050565b600060036000838152602001908152602001600020600201549050919050565b828054600181600116156101000203166002900490600052602060002090601f016020900481019282601f10610d9957805160ff1916838001178555610dc7565b82800160010185558215610dc7579182015b82811115610dc6578251825591602001919060010190610dab565b5b509050610dd49190610e5f565b5090565b828054600181600116156101000203166002900490600052602060002090601f016020900481019282601f10610e115780548555610e4e565b82800160010185558215610e4e57600052602060002091601f016020900482015b82811115610e4d578254825591600101919060010190610e32565b5b509050610e5b9190610e5f565b5090565b610e8191905b80821115610e7d576000816000905550600101610e65565b5090565b905600a165627a7a72305820a8bf730b2fdaecca754646f8b9afb40da8b681ffddf0674709a48206f14963f40029",
  "source": "pragma solidity ^0.4.0 ;\n\ncontract CryptoRent {\n\n    \n    struct Apartment {\n        address landlord;\n        uint num_rooms;\n        uint num_bathrooms;\n        uint num_square_feet;\n        uint amount;\n        string url;\n        string location;\n        uint deposit;\n        bool rented;\n    }\n    \n    struct Lease {\n        uint start_date;\n        uint end_date;\n        uint num_payments;\n        address tenant;\n    }\n    \n    uint uid;\n    mapping(uint => Apartment) apartments;\n    mapping(address => mapping(uint => Apartment)) landlords;\n    mapping(uint => Lease) leases;\n    mapping (address => uint) renters;\n    \n    //Events\n    //Create Apartment\n    event ApartmentCreated(uint apartment_id);\n    //Sign Lease\n    event SignedLease(uint apartment_id, address tenant);\n    //Release Lease\n    event ReleaseLease(uint apartment_id, address tenant);\n    \n    constructor (){\n        uid = 0;\n    }\n    \n    function createApartment(address _landlord,uint _num_rooms,uint _num_bathrooms,uint _sq_ft, uint _mthly_amt,string _url, string _location,uint _deposit) {\n        Apartment storage apartment;\n        apartment.landlord = _landlord;\n        apartment.num_rooms =  _num_rooms;\n        apartment.num_bathrooms = _num_bathrooms;\n        apartment.num_square_feet = _sq_ft;\n        apartment.amount = _mthly_amt;\n        apartment.url = _url;\n        apartment.location = _location;\n        apartment.deposit = _deposit;\n        apartment.rented = false;\n        \n        landlords[_landlord][uid] = apartment;\n        apartments[uid] = apartment;\n        emit ApartmentCreated(uid);\n        uid++;\n        \n    }\n    \n    function getLandlord(uint _apartment_id) returns (address){\n        return apartments[_apartment_id].landlord;\n    }\n    \n    function getTenant(uint _apartment_id) public returns (address){\n        require(apartments[_apartment_id].rented, \"This apartment has not yet been rented\");\n        return leases[_apartment_id].tenant;\n    }\n    \n    function getMonthlyAmt(uint _apartment_id) returns (uint){\n        return apartments[_apartment_id].amount;\n    }\n    \n    function getNumPayments(uint _apartment_id) returns (uint) {\n        return leases[_apartment_id].num_payments;\n    }\n    \n    function getTenantsApartment(address _tenant) returns (uint){\n        return renters[_tenant];\n    }\n    \n    function signLease(address _tenant, uint _apartment_id,uint _start_date, uint _end_date, uint _num_payments) public {\n        //ensure tenant has enough to pay deposit\n        require(_tenant.balance >= apartments[_apartment_id].deposit, \"Insuffient Funds Cannot Sign Lease\");\n        //ensure property isn't already rented\n        require(!apartments[_apartment_id].rented, \"Apartment is already rented\");\n        \n        Lease storage lease;\n        lease.start_date = _start_date;\n        lease.end_date = _end_date;\n        lease.num_payments = _num_payments;\n        lease.tenant = _tenant;\n        \n        leases[_apartment_id] = lease;\n        apartments[_apartment_id].rented = true;\n        renters[_tenant] = _apartment_id;\n        \n        emit SignedLease(_apartment_id, _tenant);\n    }\n    \n    function expireLease(uint _apartment_id, address _tenant){\n        apartments[_apartment_id].rented = false;\n        emit ReleaseLease(_apartment_id, _tenant);\n    }\n}",
  "sourcePath": "/home/vador/Eth/Rentee/contracts/CryptoRent.sol",
  "compiler": {
    "name": "solc",
    "version": "0.4.24+commit.e67f0147.Emscripten.clang"
  },
  "schemaVersion": "2.0.1",
  "updatedAt": "2018-12-01T20:16:48.394Z"
}