{
  "contractName": "Escrow",
  "abi": [
    {
      "constant": true,
      "inputs": [],
      "name": "currentState",
      "outputs": [
        {
          "name": "",
          "type": "uint8"
        }
      ],
      "payable": false,
      "stateMutability": "view",
      "type": "function"
    },
    {
      "constant": false,
      "inputs": [
        {
          "name": "_tenant",
          "type": "address"
        },
        {
          "name": "_apartment_id",
          "type": "uint256"
        },
        {
          "name": "_start_date",
          "type": "uint256"
        },
        {
          "name": "_end_date",
          "type": "uint256"
        },
        {
          "name": "_num_payments",
          "type": "uint256"
        }
      ],
      "name": "signLease",
      "outputs": [],
      "payable": false,
      "stateMutability": "nonpayable",
      "type": "function"
    },
    {
      "constant": false,
      "inputs": [
        {
          "name": "_apartment_id",
          "type": "uint256"
        }
      ],
      "name": "getLandlord",
      "outputs": [
        {
          "name": "",
          "type": "address"
        }
      ],
      "payable": false,
      "stateMutability": "nonpayable",
      "type": "function"
    },
    {
      "constant": false,
      "inputs": [
        {
          "name": "_apartment_id",
          "type": "uint256"
        }
      ],
      "name": "getTenant",
      "outputs": [
        {
          "name": "",
          "type": "address"
        }
      ],
      "payable": false,
      "stateMutability": "nonpayable",
      "type": "function"
    },
    {
      "constant": false,
      "inputs": [
        {
          "name": "_apartment_id",
          "type": "uint256"
        }
      ],
      "name": "getMonthlyAmt",
      "outputs": [
        {
          "name": "",
          "type": "uint256"
        }
      ],
      "payable": false,
      "stateMutability": "nonpayable",
      "type": "function"
    },
    {
      "constant": false,
      "inputs": [
        {
          "name": "_landlord",
          "type": "address"
        },
        {
          "name": "_num_rooms",
          "type": "uint256"
        },
        {
          "name": "_num_bathrooms",
          "type": "uint256"
        },
        {
          "name": "_sq_ft",
          "type": "uint256"
        },
        {
          "name": "_mthly_amt",
          "type": "uint256"
        },
        {
          "name": "_url",
          "type": "string"
        },
        {
          "name": "_location",
          "type": "string"
        },
        {
          "name": "_deposit",
          "type": "uint256"
        }
      ],
      "name": "createApartment",
      "outputs": [],
      "payable": false,
      "stateMutability": "nonpayable",
      "type": "function"
    },
    {
      "constant": false,
      "inputs": [
        {
          "name": "_tenant",
          "type": "address"
        }
      ],
      "name": "getTenantsApartment",
      "outputs": [
        {
          "name": "",
          "type": "uint256"
        }
      ],
      "payable": false,
      "stateMutability": "nonpayable",
      "type": "function"
    },
    {
      "constant": false,
      "inputs": [
        {
          "name": "_apartment_id",
          "type": "uint256"
        },
        {
          "name": "_tenant",
          "type": "address"
        }
      ],
      "name": "expireLease",
      "outputs": [],
      "payable": false,
      "stateMutability": "nonpayable",
      "type": "function"
    },
    {
      "constant": false,
      "inputs": [
        {
          "name": "_apartment_id",
          "type": "uint256"
        }
      ],
      "name": "getNumPayments",
      "outputs": [
        {
          "name": "",
          "type": "uint256"
        }
      ],
      "payable": false,
      "stateMutability": "nonpayable",
      "type": "function"
    },
    {
      "constant": true,
      "inputs": [],
      "name": "arbiter",
      "outputs": [
        {
          "name": "",
          "type": "address"
        }
      ],
      "payable": false,
      "stateMutability": "view",
      "type": "function"
    },
    {
      "inputs": [],
      "payable": false,
      "stateMutability": "nonpayable",
      "type": "constructor"
    },
    {
      "anonymous": false,
      "inputs": [
        {
          "indexed": false,
          "name": "apartment_id",
          "type": "uint256"
        }
      ],
      "name": "ApartmentCreated",
      "type": "event"
    },
    {
      "anonymous": false,
      "inputs": [
        {
          "indexed": false,
          "name": "apartment_id",
          "type": "uint256"
        },
        {
          "indexed": false,
          "name": "tenant",
          "type": "address"
        }
      ],
      "name": "SignedLease",
      "type": "event"
    },
    {
      "anonymous": false,
      "inputs": [
        {
          "indexed": false,
          "name": "apartment_id",
          "type": "uint256"
        },
        {
          "indexed": false,
          "name": "tenant",
          "type": "address"
        }
      ],
      "name": "ReleaseLease",
      "type": "event"
    },
    {
      "constant": false,
      "inputs": [
        {
          "name": "_apartmentId",
          "type": "uint256"
        }
      ],
      "name": "sendPayment",
      "outputs": [],
      "payable": true,
      "stateMutability": "payable",
      "type": "function"
    },
    {
      "constant": false,
      "inputs": [
        {
          "name": "_apartmentId",
          "type": "uint256"
        }
      ],
      "name": "confirmApproval",
      "outputs": [],
      "payable": false,
      "stateMutability": "nonpayable",
      "type": "function"
    },
    {
      "constant": false,
      "inputs": [
        {
          "name": "_apartmentId",
          "type": "uint256"
        }
      ],
      "name": "refundRenter",
      "outputs": [],
      "payable": false,
      "stateMutability": "nonpayable",
      "type": "function"
    }
  ],
  "bytecode": "0x608060405234801561001057600080fd5b506000808190555033600560016101000a81548173ffffffffffffffffffffffffffffffffffffffff021916908373ffffffffffffffffffffffffffffffffffffffff1602179055506115af806100686000396000f3006080604052600436106100c5576000357c0100000000000000000000000000000000000000000000000000000000900463ffffffff1680630c3f6acf146100ca578063162b4ea1146101035780631f11b6a91461016e578063502fb9fd1461019b57806355fd83e51461020857806374e13a1a146102755780638f9a6fee146102b65780639502c1c6146102e3578063c3771eb3146103e4578063dbc2989714610404578063f0ebb73f1461045b578063fb4dd91b146104a8578063fe25e00a146104e9575b600080fd5b3480156100d657600080fd5b506100df610540565b604051808260038111156100ef57fe5b60ff16815260200191505060405180910390f35b34801561010f57600080fd5b5061016c600480360381019080803573ffffffffffffffffffffffffffffffffffffffff16906020019092919080359060200190929190803590602001909291908035906020019092919080359060200190929190505050610553565b005b34801561017a57600080fd5b5061019960048036038101908080359060200190929190505050610898565b005b3480156101a757600080fd5b506101c660048036038101908080359060200190929190505050610a91565b604051808273ffffffffffffffffffffffffffffffffffffffff1673ffffffffffffffffffffffffffffffffffffffff16815260200191505060405180910390f35b34801561021457600080fd5b5061023360048036038101908080359060200190929190505050610ad1565b604051808273ffffffffffffffffffffffffffffffffffffffff1673ffffffffffffffffffffffffffffffffffffffff16815260200191505060405180910390f35b34801561028157600080fd5b506102a060048036038101908080359060200190929190505050610bcf565b6040518082815260200191505060405180910390f35b3480156102c257600080fd5b506102e160048036038101908080359060200190929190505050610bef565b005b3480156102ef57600080fd5b506103e2600480360381019080803573ffffffffffffffffffffffffffffffffffffffff16906020019092919080359060200190929190803590602001909291908035906020019092919080359060200190929190803590602001908201803590602001908080601f0160208091040260200160405190810160405280939291908181526020018383808284378201915050505050509192919290803590602001908201803590602001908080601f016020809104026020016040519081016040528093929190818152602001838380828437820191505050505050919291929080359060200190929190505050610e0e565b005b610402600480360381019080803590602001909291905050506111bd565b005b34801561041057600080fd5b50610445600480360381019080803573ffffffffffffffffffffffffffffffffffffffff1690602001909291905050506112e8565b6040518082815260200191505060405180910390f35b34801561046757600080fd5b506104a660048036038101908080359060200190929190803573ffffffffffffffffffffffffffffffffffffffff169060200190929190505050611331565b005b3480156104b457600080fd5b506104d3600480360381019080803590602001909291905050506113cf565b6040518082815260200191505060405180910390f35b3480156104f557600080fd5b506104fe6113ef565b604051808273ffffffffffffffffffffffffffffffffffffffff1673ffffffffffffffffffffffffffffffffffffffff16815260200191505060405180910390f35b600560009054906101000a900460ff1681565b600060016000868152602001908152602001600020600701548673ffffffffffffffffffffffffffffffffffffffff163110151515610620576040517f08c379a00000000000000000000000000000000000000000000000000000000081526004018080602001828103825260228152602001807f496e7375666669656e742046756e64732043616e6e6f74205369676e204c656181526020017f736500000000000000000000000000000000000000000000000000000000000081525060400191505060405180910390fd5b6001600086815260200190815260200160002060080160009054906101000a900460ff161515156106b9576040517f08c379a000000000000000000000000000000000000000000000000000000000815260040180806020018281038252601b8152602001807f41706172746d656e7420697320616c72656164792072656e746564000000000081525060200191505060405180910390fd5b838160000181905550828160010181905550818160020181905550858160030160006101000a81548173ffffffffffffffffffffffffffffffffffffffff021916908373ffffffffffffffffffffffffffffffffffffffff16021790555080600360008781526020019081526020016000206000820154816000015560018201548160010155600282015481600201556003820160009054906101000a900473ffffffffffffffffffffffffffffffffffffffff168160030160006101000a81548173ffffffffffffffffffffffffffffffffffffffff021916908373ffffffffffffffffffffffffffffffffffffffff160217905550905050600180600087815260200190815260200160002060080160006101000a81548160ff02191690831515021790555084600460008873ffffffffffffffffffffffffffffffffffffffff1673ffffffffffffffffffffffffffffffffffffffff168152602001908152602001600020819055507f5c00c795d563d40e32d88a1926a9d09ecac07d5d93c97b55c69b6279cb2c1fbb8587604051808381526020018273ffffffffffffffffffffffffffffffffffffffff1673ffffffffffffffffffffffffffffffffffffffff1681526020019250505060405180910390a1505050505050565b6000808260006108a782610a91565b90508073ffffffffffffffffffffffffffffffffffffffff163373ffffffffffffffffffffffffffffffffffffffff1614806109305750600560019054906101000a900473ffffffffffffffffffffffffffffffffffffffff1673ffffffffffffffffffffffffffffffffffffffff163373ffffffffffffffffffffffffffffffffffffffff16145b151561093b57600080fd5b84600180600381111561094a57fe5b6006600084815260200190815260200160002060020160009054906101000a900460ff16600381111561097957fe5b14151561098557600080fd5b61098e87610ad1565b955060066000888152602001908152602001600020600001549450600060066000898152602001908152602001600020600001819055506109ef6001600660008a81526020019081526020016000206001015461141590919063ffffffff16565b60066000898152602001908152602001600020600101819055508573ffffffffffffffffffffffffffffffffffffffff166108fc869081150290604051600060405180830381858888f19350505050158015610a4f573d6000803e3d6000fd5b5060036006600089815260200190815260200160002060020160006101000a81548160ff02191690836003811115610a8357fe5b021790555050505050505050565b60006001600083815260200190815260200160002060000160009054906101000a900473ffffffffffffffffffffffffffffffffffffffff169050919050565b60006001600083815260200190815260200160002060080160009054906101000a900460ff161515610b91576040517f08c379a00000000000000000000000000000000000000000000000000000000081526004018080602001828103825260268152602001807f546869732061706172746d656e7420686173206e6f7420796574206265656e2081526020017f72656e746564000000000000000000000000000000000000000000000000000081525060400191505060405180910390fd5b6003600083815260200190815260200160002060030160009054906101000a900473ffffffffffffffffffffffffffffffffffffffff169050919050565b600060016000838152602001908152602001600020600401549050919050565b6000806000836000610c0082610ad1565b90508073ffffffffffffffffffffffffffffffffffffffff163373ffffffffffffffffffffffffffffffffffffffff161480610c895750600560019054906101000a900473ffffffffffffffffffffffffffffffffffffffff1673ffffffffffffffffffffffffffffffffffffffff163373ffffffffffffffffffffffffffffffffffffffff16145b1515610c9457600080fd5b856001806003811115610ca357fe5b6006600084815260200190815260200160002060020160009054906101000a900460ff166003811115610cd257fe5b141515610cde57600080fd5b610ce788610a91565b9650610cf2886113cf565b9550600660008981526020019081526020016000206000015494506000600660008a8152602001908152602001600020600001819055508673ffffffffffffffffffffffffffffffffffffffff166108fc869081150290604051600060405180830381858888f19350505050158015610d6f573d6000803e3d6000fd5b506006600089815260200190815260200160002060010154861015610dcb576000600660008a815260200190815260200160002060020160006101000a81548160ff02191690836003811115610dc157fe5b0217905550610e04565b6002600660008a815260200190815260200160002060020160006101000a81548160ff02191690836003811115610dfe57fe5b02179055505b5050505050505050565b6000888160000160006101000a81548173ffffffffffffffffffffffffffffffffffffffff021916908373ffffffffffffffffffffffffffffffffffffffff16021790555087816001018190555086816002018190555085816003018190555084816004018190555083816005019080519060200190610e8f929190611457565b5082816006019080519060200190610ea8929190611457565b5081816007018190555060008160080160006101000a81548160ff02191690831515021790555080600260008b73ffffffffffffffffffffffffffffffffffffffff1673ffffffffffffffffffffffffffffffffffffffff1681526020019081526020016000206000805481526020019081526020016000206000820160009054906101000a900473ffffffffffffffffffffffffffffffffffffffff168160000160006101000a81548173ffffffffffffffffffffffffffffffffffffffff021916908373ffffffffffffffffffffffffffffffffffffffff1602179055506001820154816001015560028201548160020155600382015481600301556004820154816004015560058201816005019080546001816001161561010002031660029004610fd79291906114d7565b5060068201816006019080546001816001161561010002031660029004610fff9291906114d7565b50600782015481600701556008820160009054906101000a900460ff168160080160006101000a81548160ff0219169083151502179055509050508060016000805481526020019081526020016000206000820160009054906101000a900473ffffffffffffffffffffffffffffffffffffffff168160000160006101000a81548173ffffffffffffffffffffffffffffffffffffffff021916908373ffffffffffffffffffffffffffffffffffffffff16021790555060018201548160010155600282015481600201556003820154816003015560048201548160040155600582018160050190805460018160011615610100020316600290046111059291906114d7565b506006820181600601908054600181600116156101000203166002900461112d9291906114d7565b50600782015481600701556008820160009054906101000a900460ff168160080160006101000a81548160ff0219169083151502179055509050507f570149bf92246114b244ca59c27c74873ccf27153422e70d1ee8b5a12178c5d16000546040518082815260200191505060405180910390a16000808154809291906001019190505550505050505050505050565b60008160008060038111156111ce57fe5b6006600084815260200190815260200160002060020160009054906101000a900460ff1660038111156111fd57fe5b14151561120957600080fd5b61121284610bcf565b925082341015151561122357600080fd5b61124c34600660008781526020019081526020016000206000015461143690919063ffffffff16565b60066000868152602001908152602001600020600001819055506112906001600660008781526020019081526020016000206001015461143690919063ffffffff16565b600660008681526020019081526020016000206001018190555060016006600086815260200190815260200160002060020160006101000a81548160ff021916908360038111156112dd57fe5b021790555050505050565b6000600460008373ffffffffffffffffffffffffffffffffffffffff1673ffffffffffffffffffffffffffffffffffffffff168152602001908152602001600020549050919050565b60006001600084815260200190815260200160002060080160006101000a81548160ff0219169083151502179055507f2a780e7d75fcf50b13ebb4ffe8893eca45a1ba4abcbb4187599d9ec1d69c3eb68282604051808381526020018273ffffffffffffffffffffffffffffffffffffffff1673ffffffffffffffffffffffffffffffffffffffff1681526020019250505060405180910390a15050565b600060036000838152602001908152602001600020600201549050919050565b600560019054906101000a900473ffffffffffffffffffffffffffffffffffffffff1681565b60008083831115151561142757600080fd5b82840390508091505092915050565b600080828401905083811015151561144d57600080fd5b8091505092915050565b828054600181600116156101000203166002900490600052602060002090601f016020900481019282601f1061149857805160ff19168380011785556114c6565b828001600101855582156114c6579182015b828111156114c55782518255916020019190600101906114aa565b5b5090506114d3919061155e565b5090565b828054600181600116156101000203166002900490600052602060002090601f016020900481019282601f10611510578054855561154d565b8280016001018555821561154d57600052602060002091601f016020900482015b8281111561154c578254825591600101919060010190611531565b5b50905061155a919061155e565b5090565b61158091905b8082111561157c576000816000905550600101611564565b5090565b905600a165627a7a723058204f39a629ffb7b3b5b17850b9e2f00663f275aea1faaad51e989003d452ef31280029",
  "source": "pragma solidity ^0.4.0;\n\nimport \"./SafeMath.sol\";\nimport \"./CryptoRent.sol\";\n\ncontract Escrow is CryptoRent{\n    using SafeMath for uint256;\n\n\n    enum State { AWAITING_PAYMENT, AWAITING_APPROVAL, COMPLETE, REFUNDED}\n    State public currentState;\n\n//what about this???\n\n//get the renter and the landlord from the apartment ID\n    modifier renterOnly(uint _apartmentId) { \n        //read landlord getRenter(_apartmentId)\n        address renter = getTenant(_apartmentId);\n        require(msg.sender == renter || msg.sender == arbiter); \n        _; \n        \n    }\n    modifier landlordOnly(uint _apartmentId) { \n        //read landlord getLandlord(_apartmentId)\n        address landlord= getLandlord(_apartmentId);\n        require(msg.sender == landlord || msg.sender == arbiter); \n        _; \n        \n    }\n    modifier inState(uint _apartmentId,State expectedState) { require(_lease[_apartmentId].status == expectedState); _; }\n\n   // address public renter;\n    //address public landlord;\n    address public arbiter;\n    \n     struct LeaseStatus {\n        uint balance;\n        uint nrPayment;\n        State status;\n    }\n    \n    mapping (uint => LeaseStatus) internal _lease;//map each renter with the amount paid\n   // mapping (uint => State) internal _state;//map each renter with the status of the payment\n    \n    \n    //What should be the constructor??\n    constructor() public {\n        arbiter = msg.sender;\n    }\n    \n    \n    function sendPayment(uint _apartmentId) inState(_apartmentId,State.AWAITING_PAYMENT) public payable {\n        //get apartment id \n        uint monthlyRent=getMonthlyAmt(_apartmentId);//from the apartment \n        require(msg.value>=monthlyRent);\n        _lease[_apartmentId].balance = _lease[_apartmentId].balance.add(msg.value);\n        _lease[_apartmentId].nrPayment = _lease[_apartmentId].nrPayment.add(1);\n        \n        _lease[_apartmentId].status = State.AWAITING_APPROVAL;\n    }\n\n    function confirmApproval(uint _apartmentId) renterOnly(_apartmentId) inState(_apartmentId,State.AWAITING_APPROVAL) public {\n        //get landlord address from apartment and end of lease\n         //read renter address get from apartment??\n       //maybe check if above the balance is above Monthlyrent\n      address landlord = getLandlord(_apartmentId);\n      uint totPayments = getNumPayments(_apartmentId);\n      \n     //   bool LastMonth;// = isLastMonth(_apartmentId);\n        \n        uint payment=_lease[_apartmentId].balance;\n        _lease[_apartmentId].balance=0;\n        landlord.transfer(payment);\n        if(totPayments <_lease[_apartmentId].nrPayment){\n            _lease[_apartmentId].status = State.AWAITING_PAYMENT;\n        }\n        else{\n            _lease[_apartmentId].status = State.COMPLETE;\n        }\n        \n    }\n\n    function refundRenter(uint _apartmentId) landlordOnly(_apartmentId) inState(_apartmentId,State.AWAITING_APPROVAL) public {\n        //read renter address get from apartment\n        address renter = getTenant(_apartmentId);\n        uint payment=_lease[_apartmentId].balance;\n        _lease[_apartmentId].balance=0;\n        _lease[_apartmentId].nrPayment = _lease[_apartmentId].nrPayment.sub(1);\n        renter.transfer(payment);\n        _lease[_apartmentId].status = State.REFUNDED;\n    }\n}\n",
  "sourcePath": "/home/vador/Eth/Rentee/contracts/Escrow.sol",
  "compiler": {
    "name": "solc",
    "version": "0.4.24+commit.e67f0147.Emscripten.clang"
  },
  "schemaVersion": "2.0.1",
  "updatedAt": "2018-12-01T20:16:48.389Z"
}